:100000000C9462000C948A000C948A000C948A0070
:100010000C948A000C948A000C948A000C948A0038
:100020000C948A000C948A000C948A000C948A0028
:100030000C948A000C948A000C948A000C948A0018
:100040000C94FA010C948A000C946A020C944402F9
:100050000C948A000C948A000C948A000C948A00F8
:100060000C948A000C948A000000000024002700F1
:100070002A000000000023002600290000000000E4
:10008000250028002B0004040404040404040202D4
:100090000202020203030303030301020408102007
:1000A0004080010204081020010204081020000012
:1000B0000008000201000003040700000000000027
:1000C0000000070411241FBECFEFD8E0DEBFCDBF74
:1000D00011E0A0E0B1E0ECEBF8E002C005900D9279
:1000E000AE31B107D9F721E0AEE1B1E001C01D9218
:1000F000AA3CB207E1F710E0C2E6D0E004C02197C5
:10010000FE010E945604C136D107C9F70E949C0225
:100110000C945C040C940000833081F028F481304E
:1001200099F08230A9F008958730A9F08830C9F09D
:100130008430B1F4809180008F7D03C08091800075
:100140008F7780938000089584B58F7784BD08955C
:1001500084B58F7DFBCF8091B0008F778093B00006
:1001600008958091B0008F7DF9CF1F93CF93DF93D7
:10017000E1EBF0E09491EDE9F0E0D491E9E8F0E012
:10018000C491CC23B9F0182F992319F0892F0E941C
:100190008C00EC2FF0E0EE0FFF1FE458FF4FA5910D
:1001A000B4918FB7F894EC91111108C0D095DE236B
:1001B000DC938FBFDF91CF911F910895DE2BF8CF95
:1001C000AF92BF92CF92DF92EF92FF920F931F9365
:1001D000CF93DF936C017B018B01040F151FEB01A3
:1001E0005E01AE18BF08C017D10759F06991D6015A
:1001F000ED91FC910190F081E02DC6010995892BCC
:1002000079F7C501DF91CF911F910F91FF90EF908A
:10021000DF90CF90BF90AF900895FC01538D448D37
:10022000252F30E0842F90E0821B930B541710F0A1
:10023000CF96089501970895FC01918D828D9817AE
:1002400061F0A28DAE0FBF2FB11D5D968C91928D86
:100250009F5F9F73928F90E008958FEF9FEF0895B7
:10026000FC01918D828D981731F0828DE80FF11D80
:10027000858D90E008958FEF9FEF0895FC01918D9B
:10028000228D892F90E0805C9F4F821B91098F7394
:10029000992708958DE291E00E943E0121E0892B8B
:1002A00009F420E0822F089580E090E0892B29F066
:1002B0000E944A0181110C9400000895FC01A48D54
:1002C000A80FB92FB11DA35ABF4F2C91848D90E078
:1002D00001968F739927848FA689B7892C93A0895B
:1002E000B1898C91837080648C93938D848D9813E5
:1002F00006C00288F389E02D80818F7D8083089578
:10030000EF92FF920F931F93CF93DF93EC0181E065
:10031000888F9B8D8C8D98131AC0E889F98980810C
:1003200085FF15C09FB7F894EE89FF896083E8893F
:10033000F98980818370806480839FBF81E090E031
:10034000DF91CF911F910F91FF90EF900895F62EBE
:100350000B8D10E00F5F1F4F0F731127E02E8C8D58
:100360008E110CC00FB607FCFACFE889F98980819D
:1003700085FFF5CFCE010E945E01F1CFEB8DEC0F32
:10038000FD2FF11DE35AFF4FF0829FB7F8940B8FBA
:10039000EA89FB8980818062CFCFCF93DF93EC0124
:1003A000888D8823B9F0AA89BB89E889F9898C915D
:1003B00085FD03C0808186FD0DC00FB607FCF7CF19
:1003C0008C9185FFF2CF808185FFEDCFCE010E9419
:1003D0005E01E9CFDF91CF910895FC0101900020EB
:1003E000E9F73197AF01481B590BBC018DE291E051
:1003F0000C94E0001F920F920FB60F9211242F93CE
:100400003F938F939F93AF93BF93809129019091D6
:100410002A01A0912B01B0912C013091280123E0F9
:10042000230F2D3758F50196A11DB11D20932801EA
:100430008093290190932A01A0932B01B0932C0162
:100440008091240190912501A0912601B09127016E
:100450000196A11DB11D8093240190932501A093C5
:100460002601B0932701BF91AF919F918F913F914A
:100470002F910F900FBE0F901F90189526E8230F15
:100480000296A11DB11DD2CF1F920F920FB60F92EF
:1004900011242F933F934F935F936F937F938F9389
:1004A0009F93AF93BF93EF93FF938DE291E00E94F0
:1004B0005E01FF91EF91BF91AF919F918F917F91DD
:1004C0006F915F914F913F912F910F900FBE0F90C1
:1004D0001F9018951F920F920FB60F9211242F9311
:1004E0008F939F93EF93FF93E0913D01F0913E0135
:1004F0008081E0914301F091440182FD1BC0908115
:10050000809146018F5F8F7320914701821741F0E0
:10051000E0914601F0E0E35DFE4F958F8093460148
:10052000FF91EF919F918F912F910F900FBE0F90A0
:100530001F9018958081F4CFCF93DF93CDB7DEB7AE
:10054000A1970FB6F894DEBF0FBECDBF789484B5E7
:10055000826084BD84B5816084BD85B5826085BDBF
:1005600085B5816085BD80916E00816080936E004D
:10057000109281008091810082608093810080913F
:1005800081008160809381008091800081608093F0
:1005900080008091B10084608093B1008091B000B0
:1005A00081608093B00080917A00846080937A00AB
:1005B00080917A00826080937A0080917A008160D5
:1005C00080937A0080917A00806880937A001092FC
:1005D000C100E0913D01F0913E0182E08083E09115
:1005E0003901F0913A011082E0913B01F0913C0118
:1005F0008FEC808310924501E0914101F09142011E
:1006000086E08083E0913F01F0914001808180612C
:100610008083E0913F01F091400180818860808378
:10062000E0913F01F0914001808180688083E091FA
:100630003F01F091400180818F7D80835CE9652ED0
:1006400050E0752EF301249168E8E62E60E0F62E66
:10065000F70184918823C9F090E0880F991FFC016D
:10066000E859FF4FA591B491FC01E458FF4F459123
:1006700054913FB7F8949C91822F809598239C9336
:10068000FA019081892380833FBFEDE9F0E0249156
:10069000E9E8F0E08491882399F090E0880F991FB1
:1006A000FC01E859FF4FA591B491FC01E458FF4FBC
:1006B000859194918FB7F894EC91E22BEC938FBFD6
:1006C0009AE0892E912CA12CB12C20E0C22E20E0A2
:1006D000D22EE0EBF0E08491F3011491F701049144
:1006E000002309F47BC081110E948C00E02FF0E010
:1006F000EE0FFF1FEE58FF4FA591B4918C91182378
:1007000081E090E009F480E080932201909323013E
:100710002091200130912101232B09F045C080FF59
:1007200043C080911E0190911F01019690931F017B
:1007300080931E0182E191E00E94ED0120901E0154
:1007400030901F01032C000C4408550857FE49C087
:100750006DE28DE291E00E94800122273327A901FA
:10076000221933094409550919A28E010F5D1F4F43
:10077000CA01B901A50194010E943404605DF80129
:1007800062938F01211531054105510589F7011546
:10079000110519F0C8010E94ED018BE191E00E9462
:1007A000ED0181E00E94B50000912201109123012A
:1007B0000115110519F480E00E94B5001093210184
:1007C00000932001C114D10409F483CF0E944A018F
:1007D000882309F47ECF0E9400007BCF80E090E068
:1007E00093CFA201910119A28E010F5D1F4FCA0183
:1007F000B901A50194010E943404605DF80162937F
:100800008F01211531054105510589F7C0CFEDE272
:10081000F1E01382128288EE93E0A0E0B0E08483DE
:100820009583A683B78384E091E09183808385ECF0
:1008300090E09587848784EC90E09787868780ECAA
:1008400090E0918B808B81EC90E0938B828B82EC9B
:1008500090E0958B848B86EC90E0978B868B118E45
:10086000128E138E148E0895A1E21A2EAA1BBB1BA2
:10087000FD010DC0AA1FBB1FEE1FFF1FA217B3076C
:10088000E407F50720F0A21BB30BE40BF50B661F82
:10089000771F881F991F1A9469F760957095809546
:1008A00090959B01AC01BD01CF010895EE0FFF1F94
:0C08B0000590F491E02D0994F894FFCF1E
:1008BC00000000008001E0000D01CD013E011C0193
:0E08CC003001546F74616C203A20000D0A0058
:00000001FF
